:020000040000FA
:1000000001288312850107309900831664007E3031
:1000100081003B3085003330950003308E00FF2394
:1000200090008312A601851C2228051C2728851E06
:100030003B28051E4E28851D5C2826183B280515E3
:100040006300132826100511C320CA201328261484
:1000500005110130A5000130A4003230A300CA20F0
:10006000640005150130A5000130A4004D30A30047
:10007000CA206400132805110130A5000130A40036
:100080000730A300CA20640005150130A500013027
:10009000A4007830A300CA20640013282614051198
:1000A0000130A5001030A400D730A300CA200515E8
:1000B000C320CA20CA20132826100511C320CA2035
:1000C000051585191328C320CA200511C320CA208D
:1000D000051585191328C320CA200511C320CA207D
:1000E000051585191328C320CA200511C320CA206D
:1000F00085191328CA2085191328CA2005158519C2
:100100001328C320CA200511C320CA20851913282B
:10011000CA2085191328CA20051585191328C3205C
:10012000CA200511C320CA2085191328CA208519A1
:100130001328CA20051585191328C320CA200511C4
:10014000C320CA20051585191328C320CA2005110C
:10015000C320CA20051585191328C320CA200511FC
:10016000C320CA20051585191328C320CA200515E8
:1001700085191328C320CA2085191328CA20851978
:100180001328CA2013281030A5004030A400A8303E
:10019000A30008002508A2002408A1006400230889
:1001A000A0006400A00BD228A10BCF28A20BCC2862
:0201B000080045
:0401B20000340034E1
:02400E00CC3FA5
:00000001FF
